{
  "contractName": "Energy",
  "abi": [
    {
      "inputs": [],
      "payable": false,
      "stateMutability": "nonpayable",
      "type": "constructor"
    },
    {
      "constant": false,
      "inputs": [
        {
          "name": "id",
          "type": "uint256"
        },
        {
          "name": "maxWei",
          "type": "uint256"
        }
      ],
      "name": "withdrawFromVirtualStorage",
      "outputs": [],
      "payable": false,
      "stateMutability": "nonpayable",
      "type": "function"
    },
    {
      "constant": true,
      "inputs": [
        {
          "name": "toCheck",
          "type": "address"
        }
      ],
      "name": "getAllStorageVirtuale",
      "outputs": [
        {
          "name": "",
          "type": "uint256"
        }
      ],
      "payable": false,
      "stateMutability": "view",
      "type": "function"
    },
    {
      "constant": false,
      "inputs": [
        {
          "name": "capienzaTotale",
          "type": "uint32"
        },
        {
          "name": "prezzoAcquisto",
          "type": "uint256"
        },
        {
          "name": "prezzoVendita",
          "type": "uint256"
        },
        {
          "name": "dataDiScadenzaVendita",
          "type": "uint256"
        }
      ],
      "name": "createStorageVirtuale",
      "outputs": [],
      "payable": true,
      "stateMutability": "payable",
      "type": "function"
    },
    {
      "constant": false,
      "inputs": [
        {
          "name": "toAdd",
          "type": "address"
        }
      ],
      "name": "addEnergyManager",
      "outputs": [],
      "payable": false,
      "stateMutability": "nonpayable",
      "type": "function"
    },
    {
      "constant": true,
      "inputs": [
        {
          "name": "toCheck",
          "type": "address"
        }
      ],
      "name": "isEnergyManager",
      "outputs": [
        {
          "name": "",
          "type": "bool"
        }
      ],
      "payable": false,
      "stateMutability": "view",
      "type": "function"
    }
  ],
  "bytecode": "0x608060405234801561001057600080fd5b506001600260003373ffffffffffffffffffffffffffffffffffffffff1673ffffffffffffffffffffffffffffffffffffffff16815260200190815260200160002060006101000a81548160ff02191690831515021790555061076a806100786000396000f30060806040526004361061006d576000357c0100000000000000000000000000000000000000000000000000000000900463ffffffff16806314e9253714610072578063624370ba146100a95780636c62dbb1146100ed5780638400701814610148578063935e4c211461018b575b600080fd5b34801561007e57600080fd5b506100a760048036038101908080359060200190929190803590602001909291905050506101e2565b005b6100eb600480360381019080803563ffffffff169060200190929190803590602001909291908035906020019092919080359060200190929190505050610400565b005b3480156100f957600080fd5b5061012e600480360381019080803573ffffffffffffffffffffffffffffffffffffffff1690602001909291905050506105d9565b604051808215151515815260200191505060405180910390f35b34801561015457600080fd5b50610189600480360381019080803573ffffffffffffffffffffffffffffffffffffffff16906020019092919050505061062f565b005b34801561019757600080fd5b506101cc600480360381019080803573ffffffffffffffffffffffffffffffffffffffff16906020019092919050505061069e565b6040518082815260200191505060405180910390f35b6101ea6106ea565b600083600160003373ffffffffffffffffffffffffffffffffffffffff1673ffffffffffffffffffffffffffffffffffffffff1681526020019081526020016000208054905011151561023c57600080fd5b600160003373ffffffffffffffffffffffffffffffffffffffff1673ffffffffffffffffffffffffffffffffffffffff1681526020019081526020016000208481548110151561028857fe5b9060005260206000209060060201610100604051908101604052908160008201548152602001600182015481526020016002820154815260200160038201548152602001600482015481526020016005820160009054906101000a900463ffffffff1663ffffffff1663ffffffff1681526020016005820160049054906101000a900463ffffffff1663ffffffff1663ffffffff1681526020016005820160089054906101000a900460ff161515151581525050915081602001518260c001518360a001510363ffffffff1602826080015103905080831115156103b2573373ffffffffffffffffffffffffffffffffffffffff166108fc849081150290604051600060405180830381858888f193505050501580156103ac573d6000803e3d6000fd5b506103fa565b3373ffffffffffffffffffffffffffffffffffffffff166108fc829081150290604051600060405180830381858888f193505050501580156103f8573d6000803e3d6000fd5b505b50505050565b610409336105d9565b151561041457600080fd5b828463ffffffff1602341015151561042b57600080fd5b818310151561043957600080fd5b600160003373ffffffffffffffffffffffffffffffffffffffff1673ffffffffffffffffffffffffffffffffffffffff16815260200190815260200160002061010060405190810160405280838152602001858152602001848152602001600160003373ffffffffffffffffffffffffffffffffffffffff1673ffffffffffffffffffffffffffffffffffffffff1681526020019081526020016000208054905081526020013481526020018663ffffffff168152602001600063ffffffff1681526020016000151581525090806001815401808255809150509060018203906000526020600020906006020160009091929091909150600082015181600001556020820151816001015560408201518160020155606082015181600301556080820151816004015560a08201518160050160006101000a81548163ffffffff021916908363ffffffff16021790555060c08201518160050160046101000a81548163ffffffff021916908363ffffffff16021790555060e08201518160050160086101000a81548160ff02191690831515021790555050505050505050565b6000600260008373ffffffffffffffffffffffffffffffffffffffff1673ffffffffffffffffffffffffffffffffffffffff16815260200190815260200160002060009054906101000a900460ff169050919050565b610638336105d9565b151561064357600080fd5b6001600260008373ffffffffffffffffffffffffffffffffffffffff1673ffffffffffffffffffffffffffffffffffffffff16815260200190815260200160002060006101000a81548160ff02191690831515021790555050565b6000600160008373ffffffffffffffffffffffffffffffffffffffff1673ffffffffffffffffffffffffffffffffffffffff168152602001908152602001600020805490509050919050565b610100604051908101604052806000815260200160008152602001600081526020016000815260200160008152602001600063ffffffff168152602001600063ffffffff16815260200160001515815250905600a165627a7a723058205a69ae0c90692542c8a2f98ca56bf837ad8ea3de890ccbdc2ef2e16160d5075c0029",
  "source": "pragma solidity ^0.4.24;\n\ncontract Energy {\n\n\t//Associa ad ogni utente il numero di kWh disponibili alla vendita ed al consumo\n\tmapping(address => uint) prosumer;\n\n\tstruct storageVirtuale {\n\t\tuint dataDiScadenzaVendita;\n\t\tuint prezzoAcquisto; //Prezzo a cui viene comprata dallo storage\n\t\tuint prezzoVendita; //Prezzo a cui viene venduta dallo storage\n\t\tuint identificativo;\n\t\tuint wallet;\n\t\tuint32 capienzaTotale;\n\t\tuint32 kWhAttualmenteConservati;\n\t\t//Dopo questa data sarà solo possibile comprare i rimanenti kWh\n\t\tbool deactivated;\n\t}\n\n\tmapping(address => storageVirtuale[]) energyManager;\n\tmapping(address => bool) energyManagersMapping;\n\n\tfunction withdrawFromVirtualStorage(uint id, uint maxWei) public {\n\t\trequire(energyManager[msg.sender].length > id);\n\t\tstorageVirtuale memory temp = energyManager[msg.sender][id];\n\t\tuint toWithraw = temp.wallet - ((temp.capienzaTotale - temp.kWhAttualmenteConservati) * temp.prezzoAcquisto);\n\t\tif(maxWei <= toWithraw){\n\t\t\tmsg.sender.transfer(maxWei);\n\t\t} else {\n\t\t\tmsg.sender.transfer(toWithraw);\n\t\t}\n\t}\n\n\tfunction getAllStorageVirtuale(address toCheck) public view returns(uint){\n\t\treturn energyManager[toCheck].length;\n\t}\n\n\tfunction createStorageVirtuale(uint32 capienzaTotale, uint prezzoAcquisto, uint prezzoVendita, uint dataDiScadenzaVendita) public payable{\n\t\trequire(isEnergyManager(msg.sender));\n\t\t//Nella creazione dello storage è necessario anticipare i soldi per pagare chi ha intenzine di vendere.\n \t\trequire (msg.value >= capienzaTotale * prezzoAcquisto);\n \t\t//E' necessario che ci sia un guadagno positivo nella vendita dell'energia.\n \t\trequire (prezzoAcquisto < prezzoVendita);\n\n \t\tenergyManager[msg.sender].push(storageVirtuale(dataDiScadenzaVendita, prezzoAcquisto, prezzoVendita, energyManager[msg.sender].length, msg.value, capienzaTotale, 0, false));\n\t}\n\n\tfunction addEnergyManager(address toAdd) public {\n\t\trequire(isEnergyManager(msg.sender));\n\t\tenergyManagersMapping[toAdd] = true;\n\t}\n\n\tfunction isEnergyManager(address toCheck) public view returns(bool){\n\t\treturn energyManagersMapping[toCheck];\n\t}\n\n\t//Al deploy il sender deve essere impostato come primo energyManager\n\tconstructor() public{\n\t\tenergyManagersMapping[msg.sender] = true;\n\t}\n}",
  "sourcePath": "/Users/luca/Desktop/tirocinio/energy/contracts/Energy.sol",
  "compiler": {
    "name": "solc",
    "version": "0.4.24+commit.e67f0147.Emscripten.clang"
  },
  "schemaVersion": "2.0.0",
  "updatedAt": "2018-07-23T10:42:32.409Z"
}