{
  "contractName": "Energy",
  "abi": [
    {
      "inputs": [],
      "payable": false,
      "stateMutability": "nonpayable",
      "type": "constructor"
    },
    {
      "payable": true,
      "stateMutability": "payable",
      "type": "fallback"
    },
    {
      "anonymous": false,
      "inputs": [
        {
          "indexed": false,
          "name": "prosumerAddress",
          "type": "address"
        },
        {
          "indexed": false,
          "name": "storageOwner",
          "type": "address"
        },
        {
          "indexed": false,
          "name": "storageId",
          "type": "uint256"
        },
        {
          "indexed": false,
          "name": "quantity",
          "type": "uint32"
        },
        {
          "indexed": false,
          "name": "paid",
          "type": "uint256"
        }
      ],
      "name": "Buy",
      "type": "event"
    },
    {
      "anonymous": false,
      "inputs": [
        {
          "indexed": false,
          "name": "prosumerAddress",
          "type": "address"
        },
        {
          "indexed": false,
          "name": "storageOwner",
          "type": "address"
        },
        {
          "indexed": false,
          "name": "storageId",
          "type": "uint256"
        },
        {
          "indexed": false,
          "name": "quantity",
          "type": "uint32"
        },
        {
          "indexed": false,
          "name": "earned",
          "type": "uint256"
        }
      ],
      "name": "Sell",
      "type": "event"
    },
    {
      "anonymous": false,
      "inputs": [
        {
          "indexed": false,
          "name": "owner",
          "type": "address"
        },
        {
          "indexed": false,
          "name": "id",
          "type": "uint256"
        }
      ],
      "name": "StorageCreated",
      "type": "event"
    },
    {
      "anonymous": false,
      "inputs": [
        {
          "indexed": false,
          "name": "owner",
          "type": "address"
        },
        {
          "indexed": false,
          "name": "id",
          "type": "uint256"
        }
      ],
      "name": "StorageEdited",
      "type": "event"
    },
    {
      "constant": false,
      "inputs": [
        {
          "name": "addr",
          "type": "address"
        },
        {
          "name": "id",
          "type": "uint256"
        },
        {
          "name": "quantity",
          "type": "uint32"
        }
      ],
      "name": "buyFromStorageVirtuale",
      "outputs": [],
      "payable": true,
      "stateMutability": "payable",
      "type": "function"
    },
    {
      "constant": false,
      "inputs": [
        {
          "name": "addr",
          "type": "address"
        },
        {
          "name": "id",
          "type": "uint256"
        },
        {
          "name": "quantity",
          "type": "uint32"
        }
      ],
      "name": "sellToStorageVirtuale",
      "outputs": [],
      "payable": false,
      "stateMutability": "nonpayable",
      "type": "function"
    },
    {
      "constant": false,
      "inputs": [
        {
          "name": "capienzaTotale",
          "type": "uint32"
        },
        {
          "name": "prezzoAcquisto",
          "type": "uint256"
        },
        {
          "name": "prezzoVendita",
          "type": "uint256"
        },
        {
          "name": "dataDiScadenzaVendita",
          "type": "uint256"
        }
      ],
      "name": "createStorageVirtuale",
      "outputs": [],
      "payable": true,
      "stateMutability": "payable",
      "type": "function"
    },
    {
      "constant": false,
      "inputs": [
        {
          "name": "id",
          "type": "uint256"
        },
        {
          "name": "capienzaTotale",
          "type": "uint32"
        },
        {
          "name": "prezzoAcquisto",
          "type": "uint256"
        },
        {
          "name": "prezzoVendita",
          "type": "uint256"
        },
        {
          "name": "dataDiScadenzaVendita",
          "type": "uint256"
        }
      ],
      "name": "editStorageVirtuale",
      "outputs": [],
      "payable": true,
      "stateMutability": "payable",
      "type": "function"
    },
    {
      "constant": true,
      "inputs": [
        {
          "name": "he",
          "type": "address"
        }
      ],
      "name": "getPossessedkWh",
      "outputs": [
        {
          "name": "",
          "type": "uint256"
        }
      ],
      "payable": false,
      "stateMutability": "view",
      "type": "function"
    },
    {
      "constant": false,
      "inputs": [
        {
          "name": "quantity",
          "type": "uint256"
        }
      ],
      "name": "givekWh",
      "outputs": [],
      "payable": false,
      "stateMutability": "nonpayable",
      "type": "function"
    },
    {
      "constant": false,
      "inputs": [
        {
          "name": "id",
          "type": "uint256"
        }
      ],
      "name": "disableStorageVirtuale",
      "outputs": [],
      "payable": false,
      "stateMutability": "nonpayable",
      "type": "function"
    },
    {
      "constant": false,
      "inputs": [
        {
          "name": "id",
          "type": "uint256"
        },
        {
          "name": "maxWei",
          "type": "uint256"
        }
      ],
      "name": "withdrawFromStorageVirtuale",
      "outputs": [],
      "payable": false,
      "stateMutability": "nonpayable",
      "type": "function"
    },
    {
      "constant": true,
      "inputs": [
        {
          "name": "toCheck",
          "type": "address"
        }
      ],
      "name": "getAllStorageVirtuale",
      "outputs": [
        {
          "name": "",
          "type": "uint256"
        }
      ],
      "payable": false,
      "stateMutability": "view",
      "type": "function"
    },
    {
      "constant": true,
      "inputs": [
        {
          "name": "addr",
          "type": "address"
        },
        {
          "name": "id",
          "type": "uint256"
        }
      ],
      "name": "getStorageVirtuale",
      "outputs": [
        {
          "name": "",
          "type": "uint256"
        },
        {
          "name": "",
          "type": "uint256"
        },
        {
          "name": "",
          "type": "uint256"
        },
        {
          "name": "",
          "type": "uint256"
        },
        {
          "name": "",
          "type": "uint256"
        },
        {
          "name": "",
          "type": "uint32"
        },
        {
          "name": "",
          "type": "uint32"
        },
        {
          "name": "",
          "type": "bool"
        }
      ],
      "payable": false,
      "stateMutability": "view",
      "type": "function"
    },
    {
      "constant": false,
      "inputs": [
        {
          "name": "toAdd",
          "type": "address"
        }
      ],
      "name": "addEnergyManager",
      "outputs": [],
      "payable": false,
      "stateMutability": "nonpayable",
      "type": "function"
    },
    {
      "constant": true,
      "inputs": [
        {
          "name": "toCheck",
          "type": "address"
        }
      ],
      "name": "isEnergyManager",
      "outputs": [
        {
          "name": "",
          "type": "bool"
        }
      ],
      "payable": false,
      "stateMutability": "view",
      "type": "function"
    },
    {
      "constant": false,
      "inputs": [],
      "name": "pay",
      "outputs": [],
      "payable": true,
      "stateMutability": "payable",
      "type": "function"
    }
  ],
  "bytecode": "0x608060405234801561001057600080fd5b506001600260003373ffffffffffffffffffffffffffffffffffffffff1673ffffffffffffffffffffffffffffffffffffffff16815260200190815260200160002060006101000a81548160ff021916908315150217905550611919806100786000396000f3006080604052600436106100c5576000357c0100000000000000000000000000000000000000000000000000000000900463ffffffff1680630b9be475146100c75780631b9265b81461011757806324f281721461012157806356679b721461014e578063624370ba1461019c578063681deb61146101e05780636c62dbb1146102175780638400701814610272578063935e4c21146102b5578063cb5a80ad1461030c578063e1a288f214610369578063e729c0e114610417578063fa47cffc14610444575b005b610115600480360381019080803573ffffffffffffffffffffffffffffffffffffffff16906020019092919080359060200190929190803563ffffffff16906020019092919050505061049b565b005b61011f61087a565b005b34801561012d57600080fd5b5061014c6004803603810190808035906020019092919050505061087c565b005b61019a60048036038101908080359060200190929190803563ffffffff1690602001909291908035906020019092919080359060200190929190803590602001909291905050506108cb565b005b6101de600480360381019080803563ffffffff169060200190929190803590602001909291908035906020019092919080359060200190929190505050610c26565b005b3480156101ec57600080fd5b506102156004803603810190808035906020019092919080359060200190929190505050610eae565b005b34801561022357600080fd5b50610258600480360381019080803573ffffffffffffffffffffffffffffffffffffffff1690602001909291905050506110cf565b604051808215151515815260200191505060405180910390f35b34801561027e57600080fd5b506102b3600480360381019080803573ffffffffffffffffffffffffffffffffffffffff169060200190929190505050611125565b005b3480156102c157600080fd5b506102f6600480360381019080803573ffffffffffffffffffffffffffffffffffffffff169060200190929190505050611194565b6040518082815260200191505060405180910390f35b34801561031857600080fd5b50610367600480360381019080803573ffffffffffffffffffffffffffffffffffffffff16906020019092919080359060200190929190803563ffffffff1690602001909291905050506111e0565b005b34801561037557600080fd5b506103b4600480360381019080803573ffffffffffffffffffffffffffffffffffffffff1690602001909291908035906020019092919050505061165c565b604051808981526020018881526020018781526020018681526020018581526020018463ffffffff1663ffffffff1681526020018363ffffffff1663ffffffff168152602001821515151581526020019850505050505050505060405180910390f35b34801561042357600080fd5b5061044260048036038101908080359060200190929190505050611789565b005b34801561045057600080fd5b50610485600480360381019080803573ffffffffffffffffffffffffffffffffffffffff169060200190929190505050611851565b6040518082815260200191505060405180910390f35b6104a3611899565b82600160008673ffffffffffffffffffffffffffffffffffffffff1673ffffffffffffffffffffffffffffffffffffffff168152602001908152602001600020805490501115156104f357600080fd5b600160008573ffffffffffffffffffffffffffffffffffffffff1673ffffffffffffffffffffffffffffffffffffffff1681526020019081526020016000208381548110151561053f57fe5b9060005260206000209060060201610100604051908101604052908160008201548152602001600182015481526020016002820154815260200160038201548152602001600482015481526020016005820160009054906101000a900463ffffffff1663ffffffff1663ffffffff1681526020016005820160049054906101000a900463ffffffff1663ffffffff1663ffffffff1681526020016005820160089054906101000a900460ff16151515158152505090508060c0015163ffffffff168263ffffffff161115151561061457600080fd5b8163ffffffff16816040015102341015151561062f57600080fd5b8163ffffffff166000803373ffffffffffffffffffffffffffffffffffffffff1673ffffffffffffffffffffffffffffffffffffffff16815260200190815260200160002060008282540192505081905550818160c0018181510391509063ffffffff16908163ffffffff168152505080600160008673ffffffffffffffffffffffffffffffffffffffff1673ffffffffffffffffffffffffffffffffffffffff168152602001908152602001600020848154811015156106ec57fe5b9060005260206000209060060201600082015181600001556020820151816001015560408201518160020155606082015181600301556080820151816004015560a08201518160050160006101000a81548163ffffffff021916908363ffffffff16021790555060c08201518160050160046101000a81548163ffffffff021916908363ffffffff16021790555060e08201518160050160086101000a81548160ff0219169083151502179055509050508163ffffffff168160400151028160800181815101915081815250507ffd2955a7b8af3271fa3040ca33ddddba9085409482ebd48c473a26371be9d3b13385858534604051808673ffffffffffffffffffffffffffffffffffffffff1673ffffffffffffffffffffffffffffffffffffffff1681526020018573ffffffffffffffffffffffffffffffffffffffff1673ffffffffffffffffffffffffffffffffffffffff1681526020018481526020018363ffffffff1663ffffffff1681526020018281526020019550505050505060405180910390a150505050565b565b806000803373ffffffffffffffffffffffffffffffffffffffff1673ffffffffffffffffffffffffffffffffffffffff1681526020019081526020016000206000828254019250508190555050565b6108d3611899565b85600160003373ffffffffffffffffffffffffffffffffffffffff1673ffffffffffffffffffffffffffffffffffffffff1681526020019081526020016000208054905011151561092357600080fd5b828410151561093157600080fd5b600160003373ffffffffffffffffffffffffffffffffffffffff1673ffffffffffffffffffffffffffffffffffffffff1681526020019081526020016000208681548110151561097d57fe5b9060005260206000209060060201610100604051908101604052908160008201548152602001600182015481526020016002820154815260200160038201548152602001600482015481526020016005820160009054906101000a900463ffffffff1663ffffffff1663ffffffff1681526020016005820160049054906101000a900463ffffffff1663ffffffff1663ffffffff1681526020016005820160089054906101000a900460ff16151515158152505090508060c0015163ffffffff168563ffffffff1610151515610a5257600080fd5b838563ffffffff16023482608001510110151515610a6f57600080fd5b848160a0019063ffffffff16908163ffffffff16815250508381602001818152505082816040018181525050818160000181815250503481608001818151019150818152505080600160003373ffffffffffffffffffffffffffffffffffffffff1673ffffffffffffffffffffffffffffffffffffffff16815260200190815260200160002087815481101515610b0257fe5b9060005260206000209060060201600082015181600001556020820151816001015560408201518160020155606082015181600301556080820151816004015560a08201518160050160006101000a81548163ffffffff021916908363ffffffff16021790555060c08201518160050160046101000a81548163ffffffff021916908363ffffffff16021790555060e08201518160050160086101000a81548160ff0219169083151502179055509050507fd645869a50cea3f18ffe7435581456550cdfd65a58537e139e36c151384e299f3387604051808373ffffffffffffffffffffffffffffffffffffffff1673ffffffffffffffffffffffffffffffffffffffff1681526020018281526020019250505060405180910390a1505050505050565b610c2f336110cf565b1515610c3a57600080fd5b828463ffffffff16023410151515610c5157600080fd5b8183101515610c5f57600080fd5b600160003373ffffffffffffffffffffffffffffffffffffffff1673ffffffffffffffffffffffffffffffffffffffff16815260200190815260200160002061010060405190810160405280838152602001858152602001848152602001600160003373ffffffffffffffffffffffffffffffffffffffff1673ffffffffffffffffffffffffffffffffffffffff1681526020019081526020016000208054905081526020013481526020018663ffffffff168152602001600063ffffffff1681526020016000151581525090806001815401808255809150509060018203906000526020600020906006020160009091929091909150600082015181600001556020820151816001015560408201518160020155606082015181600301556080820151816004015560a08201518160050160006101000a81548163ffffffff021916908363ffffffff16021790555060c08201518160050160046101000a81548163ffffffff021916908363ffffffff16021790555060e08201518160050160086101000a81548160ff0219169083151502179055505050507f277b914f2c376f19a77d7c653a86fb325a9d5d0e88c7570912267cca4684f6ef3360018060003373ffffffffffffffffffffffffffffffffffffffff1673ffffffffffffffffffffffffffffffffffffffff1681526020019081526020016000208054905003604051808373ffffffffffffffffffffffffffffffffffffffff1673ffffffffffffffffffffffffffffffffffffffff1681526020018281526020019250505060405180910390a150505050565b610eb6611899565b600083600160003373ffffffffffffffffffffffffffffffffffffffff1673ffffffffffffffffffffffffffffffffffffffff16815260200190815260200160002080549050111515610f0857600080fd5b600160003373ffffffffffffffffffffffffffffffffffffffff1673ffffffffffffffffffffffffffffffffffffffff16815260200190815260200160002084815481101515610f5457fe5b9060005260206000209060060201610100604051908101604052908160008201548152602001600182015481526020016002820154815260200160038201548152602001600482015481526020016005820160009054906101000a900463ffffffff1663ffffffff1663ffffffff1681526020016005820160049054906101000a900463ffffffff1663ffffffff1663ffffffff1681526020016005820160089054906101000a900460ff161515151581525050915081602001518260c001518360a001510363ffffffff160282608001510390508083111515611080573373ffffffffffffffffffffffffffffffffffffffff166108fc6103e89081150290604051600060405180830381858888f1935050505015801561107a573d6000803e3d6000fd5b506110c9565b3373ffffffffffffffffffffffffffffffffffffffff166108fc60019081150290604051600060405180830381858888f193505050501580156110c7573d6000803e3d6000fd5b505b50505050565b6000600260008373ffffffffffffffffffffffffffffffffffffffff1673ffffffffffffffffffffffffffffffffffffffff16815260200190815260200160002060009054906101000a900460ff169050919050565b61112e336110cf565b151561113957600080fd5b6001600260008373ffffffffffffffffffffffffffffffffffffffff1673ffffffffffffffffffffffffffffffffffffffff16815260200190815260200160002060006101000a81548160ff02191690831515021790555050565b6000600160008373ffffffffffffffffffffffffffffffffffffffff1673ffffffffffffffffffffffffffffffffffffffff168152602001908152602001600020805490509050919050565b6111e8611899565b82600160008673ffffffffffffffffffffffffffffffffffffffff1673ffffffffffffffffffffffffffffffffffffffff1681526020019081526020016000208054905011151561123857600080fd5b600160008573ffffffffffffffffffffffffffffffffffffffff1673ffffffffffffffffffffffffffffffffffffffff1681526020019081526020016000208381548110151561128457fe5b9060005260206000209060060201610100604051908101604052908160008201548152602001600182015481526020016002820154815260200160038201548152602001600482015481526020016005820160009054906101000a900463ffffffff1663ffffffff1663ffffffff1681526020016005820160049054906101000a900463ffffffff1663ffffffff1663ffffffff1681526020016005820160089054906101000a900460ff16151515158152505090508060c001518160a001510363ffffffff168263ffffffff161115151561135f57600080fd5b8163ffffffff166000803373ffffffffffffffffffffffffffffffffffffffff1673ffffffffffffffffffffffffffffffffffffffff16815260200190815260200160002054101515156113b257600080fd5b8163ffffffff166000803373ffffffffffffffffffffffffffffffffffffffff1673ffffffffffffffffffffffffffffffffffffffff16815260200190815260200160002060008282540392505081905550818160c0018181510191509063ffffffff16908163ffffffff16815250508163ffffffff1681602001510281608001818151039150818152505080600160008673ffffffffffffffffffffffffffffffffffffffff1673ffffffffffffffffffffffffffffffffffffffff1681526020019081526020016000208481548110151561148b57fe5b9060005260206000209060060201600082015181600001556020820151816001015560408201518160020155606082015181600301556080820151816004015560a08201518160050160006101000a81548163ffffffff021916908363ffffffff16021790555060c08201518160050160046101000a81548163ffffffff021916908363ffffffff16021790555060e08201518160050160086101000a81548160ff0219169083151502179055509050503373ffffffffffffffffffffffffffffffffffffffff166108fc82602001518463ffffffff16029081150290604051600060405180830381858888f1935050505015801561158e573d6000803e3d6000fd5b507f73fb6b6a88240d778c027508912c9ad698ed95c5e19c5b0e72899cf36e5cb5093385858585602001518763ffffffff1602604051808673ffffffffffffffffffffffffffffffffffffffff1673ffffffffffffffffffffffffffffffffffffffff1681526020018573ffffffffffffffffffffffffffffffffffffffff1673ffffffffffffffffffffffffffffffffffffffff1681526020018481526020018363ffffffff1663ffffffff1681526020018281526020019550505050505060405180910390a150505050565b600080600080600080600080600089600160008d73ffffffffffffffffffffffffffffffffffffffff1673ffffffffffffffffffffffffffffffffffffffff168152602001908152602001600020805490501115156116ba57600080fd5b600160008c73ffffffffffffffffffffffffffffffffffffffff1673ffffffffffffffffffffffffffffffffffffffff1681526020019081526020016000208a81548110151561170657fe5b90600052602060002090600602019050806000015481600101548260020154836003015484600401548560050160009054906101000a900463ffffffff168660050160049054906101000a900463ffffffff168760050160089054906101000a900460ff1698509850985098509850985098509850509295985092959890939650565b80600160003373ffffffffffffffffffffffffffffffffffffffff1673ffffffffffffffffffffffffffffffffffffffff168152602001908152602001600020805490501115156117d957600080fd5b60018060003373ffffffffffffffffffffffffffffffffffffffff1673ffffffffffffffffffffffffffffffffffffffff1681526020019081526020016000208281548110151561182657fe5b906000526020600020906006020160050160086101000a81548160ff02191690831515021790555050565b60008060008373ffffffffffffffffffffffffffffffffffffffff1673ffffffffffffffffffffffffffffffffffffffff168152602001908152602001600020549050919050565b610100604051908101604052806000815260200160008152602001600081526020016000815260200160008152602001600063ffffffff168152602001600063ffffffff16815260200160001515815250905600a165627a7a7230582065661df8eb169e4443fc7f6510de746bef92e25eb9aba6f2d6aaf5d04ee859ed0029",
  "source": "pragma solidity ^0.4.24;\n\ncontract Energy {\n\n\t//Associa ad ogni utente il numero di kWh disponibili alla vendita ed al consumo\n\tmapping(address => uint) prosumer;\n\n\tstruct storageVirtuale {\n\t\tuint dataDiScadenzaVendita;\n\t\tuint prezzoAcquisto; //Prezzo a cui viene comprata dallo storage\n\t\tuint prezzoVendita; //Prezzo a cui viene venduta dallo storage\n\t\tuint identificativo;\n\t\tuint wallet;\t//TODO forse da rimuovere?\n\t\tuint32 capienzaTotale;\n\t\tuint32 kWhAttualmenteConservati;\n\t\t//Dopo questa data sarà solo possibile comprare i rimanenti kWh\n\t\tbool deactivated;\n\t}\n\n\tmapping(address => storageVirtuale[]) energyManager;\n\tmapping(address => bool) energyManagersMapping;\n\n\tevent Buy(address prosumerAddress, address storageOwner, uint storageId, uint32 quantity, uint paid);\n\tevent Sell(address prosumerAddress, address storageOwner, uint storageId, uint32 quantity, uint earned);\n\tevent StorageCreated(address owner, uint id);\n\tevent StorageEdited(address owner, uint id);\n\n\tfunction buyFromStorageVirtuale(address addr, uint id, uint32 quantity) public payable{\n\t\trequire(energyManager[addr].length > id);\n\t\tstorageVirtuale memory scelto = energyManager[addr][id];\n\t\trequire(quantity <= scelto.kWhAttualmenteConservati);\n\t\trequire(msg.value >= scelto.prezzoVendita * quantity); //Il prezzo pagato deve essere abbastanza per la quantità\n\t\t\n\t\tprosumer[msg.sender] += quantity;\n\t\tscelto.kWhAttualmenteConservati -= quantity;\n\t\tenergyManager[addr][id] = scelto;\n\n\t\tscelto.wallet += scelto.prezzoVendita * quantity;\n\n\t\temit Buy(msg.sender, addr, id, quantity, msg.value);\n\t}\n\n\tfunction sellToStorageVirtuale(address addr, uint id, uint32 quantity) public{\n\t\trequire(energyManager[addr].length > id);\n\t\tstorageVirtuale memory scelto = energyManager[addr][id];\n\t\trequire(quantity <= scelto.capienzaTotale - scelto.kWhAttualmenteConservati); //Lo storage deve avere necessità\n\t\trequire(prosumer[msg.sender] >= quantity); //Il venditore deve possedere abbastanza kWh\n\n\t\tprosumer[msg.sender] -= quantity;\n\t\tscelto.kWhAttualmenteConservati += quantity;\n\t\tscelto.wallet -= scelto.prezzoAcquisto * quantity;\n\t\tenergyManager[addr][id] = scelto;\n\n\t\tmsg.sender.transfer(quantity * scelto.prezzoAcquisto);\n\n\t\temit Sell(msg.sender, addr, id, quantity, quantity * scelto.prezzoAcquisto);\n\t}\n\n\tfunction createStorageVirtuale(uint32 capienzaTotale, uint prezzoAcquisto, uint prezzoVendita, uint dataDiScadenzaVendita) public payable{\n\t\trequire(isEnergyManager(msg.sender));\n\t\t//Nella creazione dello storage è necessario anticipare i soldi per pagare chi ha intenzine di vendere.\n \t\trequire(msg.value >= capienzaTotale * prezzoAcquisto);\n \t\t//E' necessario che ci sia un guadagno positivo nella vendita dell'energia.\n \t\trequire(prezzoAcquisto < prezzoVendita);\n\n \t\tenergyManager[msg.sender].push(storageVirtuale(dataDiScadenzaVendita, prezzoAcquisto, prezzoVendita, energyManager[msg.sender].length, msg.value, capienzaTotale, 0, false));\n\n \t\temit StorageCreated(msg.sender, energyManager[msg.sender].length - 1);\n\t}\n\n\tfunction editStorageVirtuale(uint id, uint32 capienzaTotale, uint prezzoAcquisto, uint prezzoVendita, uint dataDiScadenzaVendita) public payable{\n\t\trequire(energyManager[msg.sender].length > id); //Deve essere un id valido\n\t\t//E' necessario che ci sia un guadagno positivo nella vendita dell'energia.\n \t\trequire(prezzoAcquisto < prezzoVendita);\n\n\t\tstorageVirtuale memory temp = energyManager[msg.sender][id];\n\t\t//La nuova capienzaTotale non può essere minore dei kWhAttualmenteConservati\n\t\trequire(capienzaTotale >= temp.kWhAttualmenteConservati);\n\t\t//Controlla se il wallet dello storage va bene con la nuova quantità\n\t\trequire(temp.wallet + msg.value >= capienzaTotale * prezzoAcquisto);\n\n\t\ttemp.capienzaTotale = capienzaTotale;\n\t\ttemp.prezzoAcquisto = prezzoAcquisto;\n\t\ttemp.prezzoVendita = prezzoVendita;\n\t\ttemp.dataDiScadenzaVendita = dataDiScadenzaVendita;\n\t\ttemp.wallet += msg.value;\n\n\t\tenergyManager[msg.sender][id]=temp;\n\n\t\temit StorageEdited(msg.sender, id);\n\t}\n\n\tfunction getPossessedkWh(address he) public view returns(uint){\n\t\treturn prosumer[he];\n\t}\n\n\tfunction givekWh(uint quantity) public {\n\t\tprosumer[msg.sender] += quantity;\n\t}\n\n\tfunction disableStorageVirtuale(uint id) public {\n\t\trequire(energyManager[msg.sender].length > id);\n\t\tenergyManager[msg.sender][id].deactivated = true;\n\t}\n\n\tfunction withdrawFromStorageVirtuale(uint id, uint maxWei) public{\n\t\trequire(energyManager[msg.sender].length > id);\n\t\tstorageVirtuale memory temp = energyManager[msg.sender][id];\n\t\tuint toWithraw = temp.wallet - ((temp.capienzaTotale - temp.kWhAttualmenteConservati) * temp.prezzoAcquisto);\n\t\tif(maxWei <= toWithraw){\n\t\t\tmsg.sender.transfer(1000);\n\t\t} else {\n\t\t\tmsg.sender.transfer(1);\n\t\t}\n\t}\n\n\tfunction getAllStorageVirtuale(address toCheck) public view returns(uint){\n\t\treturn energyManager[toCheck].length;\n\t}\n\n\tfunction getStorageVirtuale(address addr, uint id) public view returns(uint, uint, uint, uint, uint, uint32, uint32, bool){\n\t\trequire(energyManager[addr].length > id);\n\t\tstorageVirtuale storage temp = energyManager[addr][id];\n\t\treturn(temp.dataDiScadenzaVendita, temp.prezzoAcquisto, temp.prezzoVendita, temp.identificativo, temp.wallet, temp.capienzaTotale, temp.kWhAttualmenteConservati, temp.deactivated);\n\t}\n\n\tfunction addEnergyManager(address toAdd) public {\n\t\trequire(isEnergyManager(msg.sender));\n\t\tenergyManagersMapping[toAdd] = true;\n\t}\n\n\tfunction isEnergyManager(address toCheck) public view returns(bool){\n\t\treturn energyManagersMapping[toCheck];\n\t}\n\n\t//Al deploy il sender deve essere impostato come primo energyManager\n\tconstructor() public{\n\t\tenergyManagersMapping[msg.sender] = true;\n\t}\n\n\tfunction () public payable{\n\n\t}\n\n\tfunction pay() public payable{\n\n\t}\n}",
  "sourcePath": "/Users/luca/Desktop/tirocinio/energy/contracts/Energy.sol",
  "compiler": {
    "name": "solc",
    "version": "0.4.24+commit.e67f0147.Emscripten.clang"
  },
  "schemaVersion": "2.0.0",
  "updatedAt": "2018-07-30T07:54:00.691Z"
}